{
  "_format": "hh-sol-artifact-1",
  "contractName": "Fundraising",
  "sourceName": "contracts/Fundraising.sol",
  "abi": [
    {
      "inputs": [
        {
          "internalType": "address",
          "name": "_tokenAddress",
          "type": "address"
        },
        {
          "internalType": "uint256",
          "name": "_duration",
          "type": "uint256"
        }
      ],
      "stateMutability": "nonpayable",
      "type": "constructor"
    },
    {
      "inputs": [
        {
          "internalType": "address",
          "name": "owner",
          "type": "address"
        }
      ],
      "name": "OwnableInvalidOwner",
      "type": "error"
    },
    {
      "inputs": [
        {
          "internalType": "address",
          "name": "account",
          "type": "address"
        }
      ],
      "name": "OwnableUnauthorizedAccount",
      "type": "error"
    },
    {
      "anonymous": false,
      "inputs": [
        {
          "indexed": false,
          "internalType": "string",
          "name": "cause",
          "type": "string"
        },
        {
          "indexed": false,
          "internalType": "uint256",
          "name": "votes",
          "type": "uint256"
        }
      ],
      "name": "CauseVoted",
      "type": "event"
    },
    {
      "anonymous": false,
      "inputs": [
        {
          "indexed": true,
          "internalType": "address",
          "name": "donor",
          "type": "address"
        },
        {
          "indexed": false,
          "internalType": "uint256",
          "name": "amount",
          "type": "uint256"
        }
      ],
      "name": "DonationReceived",
      "type": "event"
    },
    {
      "anonymous": false,
      "inputs": [
        {
          "indexed": false,
          "internalType": "string",
          "name": "cause",
          "type": "string"
        },
        {
          "indexed": false,
          "internalType": "uint256",
          "name": "amount",
          "type": "uint256"
        },
        {
          "indexed": false,
          "internalType": "address",
          "name": "recipient",
          "type": "address"
        }
      ],
      "name": "FundsDistributed",
      "type": "event"
    },
    {
      "anonymous": false,
      "inputs": [
        {
          "indexed": true,
          "internalType": "address",
          "name": "previousOwner",
          "type": "address"
        },
        {
          "indexed": true,
          "internalType": "address",
          "name": "newOwner",
          "type": "address"
        }
      ],
      "name": "OwnershipTransferred",
      "type": "event"
    },
    {
      "anonymous": false,
      "inputs": [
        {
          "indexed": false,
          "internalType": "uint256",
          "name": "endTime",
          "type": "uint256"
        }
      ],
      "name": "VotingStarted",
      "type": "event"
    },
    {
      "inputs": [
        {
          "internalType": "uint256",
          "name": "donation",
          "type": "uint256"
        },
        {
          "internalType": "uint256",
          "name": "total",
          "type": "uint256"
        }
      ],
      "name": "calculatePercentage",
      "outputs": [
        {
          "internalType": "uint256",
          "name": "",
          "type": "uint256"
        }
      ],
      "stateMutability": "pure",
      "type": "function"
    },
    {
      "inputs": [
        {
          "internalType": "string",
          "name": "",
          "type": "string"
        }
      ],
      "name": "causeAddresses",
      "outputs": [
        {
          "internalType": "address",
          "name": "",
          "type": "address"
        }
      ],
      "stateMutability": "view",
      "type": "function"
    },
    {
      "inputs": [
        {
          "internalType": "uint256",
          "name": "",
          "type": "uint256"
        }
      ],
      "name": "causes",
      "outputs": [
        {
          "internalType": "string",
          "name": "",
          "type": "string"
        }
      ],
      "stateMutability": "view",
      "type": "function"
    },
    {
      "inputs": [],
      "name": "distributeFunds",
      "outputs": [],
      "stateMutability": "nonpayable",
      "type": "function"
    },
    {
      "inputs": [],
      "name": "donate",
      "outputs": [],
      "stateMutability": "payable",
      "type": "function"
    },
    {
      "inputs": [
        {
          "internalType": "address",
          "name": "",
          "type": "address"
        }
      ],
      "name": "donations",
      "outputs": [
        {
          "internalType": "uint256",
          "name": "",
          "type": "uint256"
        }
      ],
      "stateMutability": "view",
      "type": "function"
    },
    {
      "inputs": [
        {
          "internalType": "uint256",
          "name": "amount",
          "type": "uint256"
        }
      ],
      "name": "fundWithTokens",
      "outputs": [],
      "stateMutability": "nonpayable",
      "type": "function"
    },
    {
      "inputs": [],
      "name": "fundraisingEnd",
      "outputs": [
        {
          "internalType": "uint256",
          "name": "",
          "type": "uint256"
        }
      ],
      "stateMutability": "view",
      "type": "function"
    },
    {
      "inputs": [],
      "name": "fundraisingStopped",
      "outputs": [
        {
          "internalType": "bool",
          "name": "",
          "type": "bool"
        }
      ],
      "stateMutability": "view",
      "type": "function"
    },
    {
      "inputs": [],
      "name": "owner",
      "outputs": [
        {
          "internalType": "address",
          "name": "",
          "type": "address"
        }
      ],
      "stateMutability": "view",
      "type": "function"
    },
    {
      "inputs": [],
      "name": "renounceOwnership",
      "outputs": [],
      "stateMutability": "nonpayable",
      "type": "function"
    },
    {
      "inputs": [
        {
          "internalType": "string[]",
          "name": "_causes",
          "type": "string[]"
        },
        {
          "internalType": "address[]",
          "name": "_addresses",
          "type": "address[]"
        }
      ],
      "name": "startVoting",
      "outputs": [],
      "stateMutability": "nonpayable",
      "type": "function"
    },
    {
      "inputs": [],
      "name": "stopFundraising",
      "outputs": [],
      "stateMutability": "nonpayable",
      "type": "function"
    },
    {
      "inputs": [],
      "name": "stopVoting",
      "outputs": [],
      "stateMutability": "nonpayable",
      "type": "function"
    },
    {
      "inputs": [],
      "name": "tokenAddress",
      "outputs": [
        {
          "internalType": "address",
          "name": "",
          "type": "address"
        }
      ],
      "stateMutability": "view",
      "type": "function"
    },
    {
      "inputs": [],
      "name": "totalFunds",
      "outputs": [
        {
          "internalType": "uint256",
          "name": "",
          "type": "uint256"
        }
      ],
      "stateMutability": "view",
      "type": "function"
    },
    {
      "inputs": [
        {
          "internalType": "address",
          "name": "newOwner",
          "type": "address"
        }
      ],
      "name": "transferOwnership",
      "outputs": [],
      "stateMutability": "nonpayable",
      "type": "function"
    },
    {
      "inputs": [
        {
          "internalType": "string",
          "name": "cause",
          "type": "string"
        }
      ],
      "name": "vote",
      "outputs": [],
      "stateMutability": "nonpayable",
      "type": "function"
    },
    {
      "inputs": [
        {
          "internalType": "string",
          "name": "",
          "type": "string"
        }
      ],
      "name": "votes",
      "outputs": [
        {
          "internalType": "uint256",
          "name": "",
          "type": "uint256"
        }
      ],
      "stateMutability": "view",
      "type": "function"
    },
    {
      "inputs": [],
      "name": "votingEndTime",
      "outputs": [
        {
          "internalType": "uint256",
          "name": "",
          "type": "uint256"
        }
      ],
      "stateMutability": "view",
      "type": "function"
    },
    {
      "inputs": [],
      "name": "votingStopped",
      "outputs": [
        {
          "internalType": "bool",
          "name": "",
          "type": "bool"
        }
      ],
      "stateMutability": "view",
      "type": "function"
    }
  ],
  "bytecode": "0x60806040526000600960006101000a81548160ff0219169083151502179055506000600960016101000a81548160ff02191690831515021790555034801561004657600080fd5b50604051612fe8380380612fe8833981810160405281019061006891906102a2565b33600073ffffffffffffffffffffffffffffffffffffffff168173ffffffffffffffffffffffffffffffffffffffff16036100db5760006040517f1e4fbdf70000000000000000000000000000000000000000000000000000000081526004016100d291906102f1565b60405180910390fd5b6100ea8161014560201b60201c565b5081600160006101000a81548173ffffffffffffffffffffffffffffffffffffffff021916908373ffffffffffffffffffffffffffffffffffffffff1602179055508042610138919061033b565b600381905550505061036f565b60008060009054906101000a900473ffffffffffffffffffffffffffffffffffffffff169050816000806101000a81548173ffffffffffffffffffffffffffffffffffffffff021916908373ffffffffffffffffffffffffffffffffffffffff1602179055508173ffffffffffffffffffffffffffffffffffffffff168173ffffffffffffffffffffffffffffffffffffffff167f8be0079c531659141344cd1fd0a4f28419497f9722a3daafe3b4186f6b6457e060405160405180910390a35050565b600080fd5b600073ffffffffffffffffffffffffffffffffffffffff82169050919050565b60006102398261020e565b9050919050565b6102498161022e565b811461025457600080fd5b50565b60008151905061026681610240565b92915050565b6000819050919050565b61027f8161026c565b811461028a57600080fd5b50565b60008151905061029c81610276565b92915050565b600080604083850312156102b9576102b8610209565b5b60006102c785828601610257565b92505060206102d88582860161028d565b9150509250929050565b6102eb8161022e565b82525050565b600060208201905061030660008301846102e2565b92915050565b7f4e487b7100000000000000000000000000000000000000000000000000000000600052601160045260246000fd5b60006103468261026c565b91506103518361026c565b92508282019050808211156103695761036861030c565b5b92915050565b612c6a8061037e6000396000f3fe60806040526004361061012a5760003560e01c80639d76ea58116100ab578063ed88c68e1161006f578063ed88c68e146103ce578063ee6db355146103d8578063f2fde38b14610403578063fab2f86b1461042c578063fb42dd8714610443578063fc36e15b1461046e5761012a565b80639d76ea58146102e7578063a9c95d4114610312578063b99ef1fa14610329578063c7680ea514610366578063cc6cb19a146103915761012a565b80635e5636f8116100f25780635e5636f8146102145780636a39d91c14610251578063715018a61461027a5780638da5cb5b14610291578063968ed600146102bc5761012a565b80631ea736e01461012f5780632133e3b91461015a5780633a6a4d2e14610197578063538a942a146101ae5780635789e46b146101eb575b600080fd5b34801561013b57600080fd5b50610144610497565b604051610151919061181e565b60405180910390f35b34801561016657600080fd5b50610181600480360381019061017c9190611879565b61049d565b60405161018e919061181e565b60405180910390f35b3480156101a357600080fd5b506101ac610501565b005b3480156101ba57600080fd5b506101d560048036038101906101d091906118b9565b61085b565b6040516101e29190611976565b60405180910390f35b3480156101f757600080fd5b50610212600480360381019061020d9190611a53565b610907565b005b34801561022057600080fd5b5061023b60048036038101906102369190611c04565b610bfb565b6040516102489190611c8e565b60405180910390f35b34801561025d57600080fd5b50610278600480360381019061027391906118b9565b610c44565b005b34801561028657600080fd5b5061028f610cf2565b005b34801561029d57600080fd5b506102a6610d06565b6040516102b39190611c8e565b60405180910390f35b3480156102c857600080fd5b506102d1610d2f565b6040516102de919061181e565b60405180910390f35b3480156102f357600080fd5b506102fc610d35565b6040516103099190611c8e565b60405180910390f35b34801561031e57600080fd5b50610327610d5b565b005b34801561033557600080fd5b50610350600480360381019061034b9190611c04565b610d80565b60405161035d919061181e565b60405180910390f35b34801561037257600080fd5b5061037b610dae565b604051610388919061181e565b60405180910390f35b34801561039d57600080fd5b506103b860048036038101906103b39190611cd5565b610db4565b6040516103c5919061181e565b60405180910390f35b6103d6610dcc565b005b3480156103e457600080fd5b506103ed611009565b6040516103fa9190611d1d565b60405180910390f35b34801561040f57600080fd5b5061042a60048036038101906104259190611cd5565b61101c565b005b34801561043857600080fd5b506104416110a2565b005b34801561044f57600080fd5b50610458611122565b6040516104659190611d1d565b60405180910390f35b34801561047a57600080fd5b5061049560048036038101906104909190611d8e565b611135565b005b60045481565b60008082116104e1576040517f08c379a00000000000000000000000000000000000000000000000000000000081526004016104d890611e27565b60405180910390fd5b816064846104ef9190611e76565b6104f99190611ee7565b905092915050565b610509611524565b6003544211806105255750600960009054906101000a900460ff165b610564576040517f08c379a000000000000000000000000000000000000000000000000000000000815260040161055b90611f64565b60405180910390fd5b6004544211806105805750600960019054906101000a900460ff165b6105bf576040517f08c379a00000000000000000000000000000000000000000000000000000000081526004016105b690611fd0565b60405180910390fd5b60006105c96115ab565b90506000811161060e576040517f08c379a00000000000000000000000000000000000000000000000000000000081526004016106059061203c565b60405180910390fd5b60005b60088054905081101561084f576000600882815481106106345761063361205c565b5b906000526020600020018054610649906120ba565b80601f0160208091040260200160405190810160405280929190818152602001828054610675906120ba565b80156106c25780601f10610697576101008083540402835291602001916106c2565b820191906000526020600020905b8154815290600101906020018083116106a557829003601f168201915b5050505050905060006007826040516106db9190612127565b908152602001604051809103902060009054906101000a900473ffffffffffffffffffffffffffffffffffffffff169050600060068360405161071e9190612127565b9081526020016040518091039020549050600081111561083f57600085826002546107499190611e76565b6107539190611ee7565b905060008373ffffffffffffffffffffffffffffffffffffffff168260405161077b9061216f565b60006040518083038185875af1925050503d80600081146107b8576040519150601f19603f3d011682016040523d82523d6000602084013e6107bd565b606091505b5050905080610801576040517f08c379a00000000000000000000000000000000000000000000000000000000081526004016107f8906121d0565b60405180910390fd5b7f068f3ba3c9a8db73feba6700d2dc289338dc4e94f39664012103504ae16086c3858386604051610834939291906121f0565b60405180910390a150505b5050508080600101915050610611565b50600060028190555050565b6008818154811061086b57600080fd5b906000526020600020016000915090508054610886906120ba565b80601f01602080910402602001604051908101604052809291908181526020018280546108b2906120ba565b80156108ff5780601f106108d4576101008083540402835291602001916108ff565b820191906000526020600020905b8154815290600101906020018083116108e257829003601f168201915b505050505081565b61090f611524565b60035442118061092b5750600960009054906101000a900460ff165b61096a576040517f08c379a000000000000000000000000000000000000000000000000000000000815260040161096190611f64565b60405180910390fd5b600084849050116109b0576040517f08c379a00000000000000000000000000000000000000000000000000000000081526004016109a79061227a565b60405180910390fd5b8181905084849050146109f8576040517f08c379a00000000000000000000000000000000000000000000000000000000081526004016109ef9061230c565b60405180910390fd5b60005b600880549050811015610a7357600760088281548110610a1e57610a1d61205c565b5b90600052602060002001604051610a3591906123c4565b908152602001604051809103902060006101000a81549073ffffffffffffffffffffffffffffffffffffffff021916905580806001019150506109fb565b5060086000610a829190611763565b60005b84849050811015610ba7576008858583818110610aa557610aa461205c565b5b9050602002810190610ab791906123ea565b90918060018154018082558091505060019003906000526020600020016000909192909192909192909192509182610af09291906125ef565b50828282818110610b0457610b0361205c565b5b9050602002016020810190610b199190611cd5565b6007868684818110610b2e57610b2d61205c565b5b9050602002810190610b4091906123ea565b604051610b4e9291906126e4565b908152602001604051809103902060006101000a81548173ffffffffffffffffffffffffffffffffffffffff021916908373ffffffffffffffffffffffffffffffffffffffff1602179055508080600101915050610a85565b5061025842610bb691906126fd565b6004819055507fcf33babc496bb6dc2942b39cb7b75766bbbadf7da50d176ff8c513e991140239600454604051610bed919061181e565b60405180910390a150505050565b6007818051602081018201805184825260208301602085012081835280955050505050506000915054906101000a900473ffffffffffffffffffffffffffffffffffffffff1681565b610c4c611524565b600160009054906101000a900473ffffffffffffffffffffffffffffffffffffffff1673ffffffffffffffffffffffffffffffffffffffff166323b872dd3330846040518463ffffffff1660e01b8152600401610cab93929190612731565b6020604051808303816000875af1158015610cca573d6000803e3d6000fd5b505050506040513d601f19601f82011682018060405250810190610cee9190612794565b5050565b610cfa611524565b610d046000611620565b565b60008060009054906101000a900473ffffffffffffffffffffffffffffffffffffffff16905090565b60025481565b600160009054906101000a900473ffffffffffffffffffffffffffffffffffffffff1681565b610d63611524565b6001600960006101000a81548160ff021916908315150217905550565b6006818051602081018201805184825260208301602085012081835280955050505050506000915090505481565b60035481565b60056020528060005260406000206000915090505481565b600960009054906101000a900460ff1615610e1c576040517f08c379a0000000000000000000000000000000000000000000000000000000008152600401610e1390612833565b60405180910390fd5b6003544210610e60576040517f08c379a0000000000000000000000000000000000000000000000000000000008152600401610e579061289f565b60405180910390fd5b60003411610ea3576040517f08c379a0000000000000000000000000000000000000000000000000000000008152600401610e9a90612931565b60405180910390fd5b34600560003373ffffffffffffffffffffffffffffffffffffffff1673ffffffffffffffffffffffffffffffffffffffff1681526020019081526020016000206000828254610ef291906126fd565b925050819055503460026000828254610f0b91906126fd565b925050819055506000349050600160009054906101000a900473ffffffffffffffffffffffffffffffffffffffff1673ffffffffffffffffffffffffffffffffffffffff1663a9059cbb33836040518363ffffffff1660e01b8152600401610f74929190612951565b6020604051808303816000875af1158015610f93573d6000803e3d6000fd5b505050506040513d601f19601f82011682018060405250810190610fb79190612794565b503373ffffffffffffffffffffffffffffffffffffffff167f264f630d9efa0d07053a31163641d9fcc0adafc9d9e76f1c37c2ce3a558d2c5234604051610ffe919061181e565b60405180910390a250565b600960019054906101000a900460ff1681565b611024611524565b600073ffffffffffffffffffffffffffffffffffffffff168173ffffffffffffffffffffffffffffffffffffffff16036110965760006040517f1e4fbdf700000000000000000000000000000000000000000000000000000000815260040161108d9190611c8e565b60405180910390fd5b61109f81611620565b50565b6110aa611524565b6003544211806110c65750600960009054906101000a900460ff165b611105576040517f08c379a00000000000000000000000000000000000000000000000000000000081526004016110fc90611f64565b60405180910390fd5b6001600960016101000a81548160ff021916908315150217905550565b600960009054906101000a900460ff1681565b6003544211806111515750600960009054906101000a900460ff165b611190576040517f08c379a000000000000000000000000000000000000000000000000000000000815260040161118790611f64565b60405180910390fd5b600960019054906101000a900460ff16156111e0576040517f08c379a00000000000000000000000000000000000000000000000000000000081526004016111d7906129ec565b60405180910390fd5b6000600160009054906101000a900473ffffffffffffffffffffffffffffffffffffffff1673ffffffffffffffffffffffffffffffffffffffff166370a08231336040518263ffffffff1660e01b815260040161123d9190611c8e565b602060405180830381865afa15801561125a573d6000803e3d6000fd5b505050506040513d601f19601f8201168201806040525081019061127e9190612a21565b116112be576040517f08c379a00000000000000000000000000000000000000000000000000000000081526004016112b590612a9a565b60405180910390fd5b61130b82828080601f016020809104026020016040519081016040528093929190818152602001838380828437600081840152601f19601f820116905080830192505050505050506116e4565b61134a576040517f08c379a000000000000000000000000000000000000000000000000000000000815260040161134190612b06565b60405180910390fd5b6000600160009054906101000a900473ffffffffffffffffffffffffffffffffffffffff1673ffffffffffffffffffffffffffffffffffffffff166370a08231336040518263ffffffff1660e01b81526004016113a79190611c8e565b602060405180830381865afa1580156113c4573d6000803e3d6000fd5b505050506040513d601f19601f820116820180604052508101906113e89190612a21565b905080600684846040516113fd9291906126e4565b9081526020016040518091039020600082825461141a91906126fd565b92505081905550600160009054906101000a900473ffffffffffffffffffffffffffffffffffffffff1673ffffffffffffffffffffffffffffffffffffffff166323b872dd3330846040518463ffffffff1660e01b815260040161148093929190612731565b6020604051808303816000875af115801561149f573d6000803e3d6000fd5b505050506040513d601f19601f820116820180604052508101906114c39190612794565b507ffda139a8143971d27a9b511dd95c9d152e14ad0a5d109e884e021592675a76718383600686866040516114f99291906126e4565b90815260200160405180910390205460405161151793929190612b53565b60405180910390a1505050565b61152c61175b565b73ffffffffffffffffffffffffffffffffffffffff1661154a610d06565b73ffffffffffffffffffffffffffffffffffffffff16146115a95761156d61175b565b6040517f118cdaa70000000000000000000000000000000000000000000000000000000081526004016115a09190611c8e565b60405180910390fd5b565b6000806000905060005b600880549050811015611618576006600882815481106115d8576115d761205c565b5b906000526020600020016040516115ef91906123c4565b9081526020016040518091039020548261160991906126fd565b915080806001019150506115b5565b508091505090565b60008060009054906101000a900473ffffffffffffffffffffffffffffffffffffffff169050816000806101000a81548173ffffffffffffffffffffffffffffffffffffffff021916908373ffffffffffffffffffffffffffffffffffffffff1602179055508173ffffffffffffffffffffffffffffffffffffffff168173ffffffffffffffffffffffffffffffffffffffff167f8be0079c531659141344cd1fd0a4f28419497f9722a3daafe3b4186f6b6457e060405160405180910390a35050565b600080600090505b600880549050811015611750578280519060200120600882815481106117155761171461205c565b5b9060005260206000200160405161172c9190612c1d565b604051809103902003611743576001915050611756565b80806001019150506116ec565b50600090505b919050565b600033905090565b50805460008255906000526020600020908101906117819190611784565b50565b5b808211156117a4576000818161179b91906117a8565b50600101611785565b5090565b5080546117b4906120ba565b6000825580601f106117c657506117e5565b601f0160209004906000526020600020908101906117e491906117e8565b5b50565b5b808211156118015760008160009055506001016117e9565b5090565b6000819050919050565b61181881611805565b82525050565b6000602082019050611833600083018461180f565b92915050565b6000604051905090565b600080fd5b600080fd5b61185681611805565b811461186157600080fd5b50565b6000813590506118738161184d565b92915050565b600080604083850312156118905761188f611843565b5b600061189e85828601611864565b92505060206118af85828601611864565b9150509250929050565b6000602082840312156118cf576118ce611843565b5b60006118dd84828501611864565b91505092915050565b600081519050919050565b600082825260208201905092915050565b60005b83811015611920578082015181840152602081019050611905565b60008484015250505050565b6000601f19601f8301169050919050565b6000611948826118e6565b61195281856118f1565b9350611962818560208601611902565b61196b8161192c565b840191505092915050565b60006020820190508181036000830152611990818461193d565b905092915050565b600080fd5b600080fd5b600080fd5b60008083601f8401126119bd576119bc611998565b5b8235905067ffffffffffffffff8111156119da576119d961199d565b5b6020830191508360208202830111156119f6576119f56119a2565b5b9250929050565b60008083601f840112611a1357611a12611998565b5b8235905067ffffffffffffffff811115611a3057611a2f61199d565b5b602083019150836020820283011115611a4c57611a4b6119a2565b5b9250929050565b60008060008060408587031215611a6d57611a6c611843565b5b600085013567ffffffffffffffff811115611a8b57611a8a611848565b5b611a97878288016119a7565b9450945050602085013567ffffffffffffffff811115611aba57611ab9611848565b5b611ac6878288016119fd565b925092505092959194509250565b600080fd5b7f4e487b7100000000000000000000000000000000000000000000000000000000600052604160045260246000fd5b611b118261192c565b810181811067ffffffffffffffff82111715611b3057611b2f611ad9565b5b80604052505050565b6000611b43611839565b9050611b4f8282611b08565b919050565b600067ffffffffffffffff821115611b6f57611b6e611ad9565b5b611b788261192c565b9050602081019050919050565b82818337600083830152505050565b6000611ba7611ba284611b54565b611b39565b905082815260208101848484011115611bc357611bc2611ad4565b5b611bce848285611b85565b509392505050565b600082601f830112611beb57611bea611998565b5b8135611bfb848260208601611b94565b91505092915050565b600060208284031215611c1a57611c19611843565b5b600082013567ffffffffffffffff811115611c3857611c37611848565b5b611c4484828501611bd6565b91505092915050565b600073ffffffffffffffffffffffffffffffffffffffff82169050919050565b6000611c7882611c4d565b9050919050565b611c8881611c6d565b82525050565b6000602082019050611ca36000830184611c7f565b92915050565b611cb281611c6d565b8114611cbd57600080fd5b50565b600081359050611ccf81611ca9565b92915050565b600060208284031215611ceb57611cea611843565b5b6000611cf984828501611cc0565b91505092915050565b60008115159050919050565b611d1781611d02565b82525050565b6000602082019050611d326000830184611d0e565b92915050565b60008083601f840112611d4e57611d4d611998565b5b8235905067ffffffffffffffff811115611d6b57611d6a61199d565b5b602083019150836001820283011115611d8757611d866119a2565b5b9250929050565b60008060208385031215611da557611da4611843565b5b600083013567ffffffffffffffff811115611dc357611dc2611848565b5b611dcf85828601611d38565b92509250509250929050565b7f546f74616c206d7573742062652067726561746572207468616e207a65726f21600082015250565b6000611e116020836118f1565b9150611e1c82611ddb565b602082019050919050565b60006020820190508181036000830152611e4081611e04565b9050919050565b7f4e487b7100000000000000000000000000000000000000000000000000000000600052601160045260246000fd5b6000611e8182611805565b9150611e8c83611805565b9250828202611e9a81611805565b91508282048414831517611eb157611eb0611e47565b5b5092915050565b7f4e487b7100000000000000000000000000000000000000000000000000000000600052601260045260246000fd5b6000611ef282611805565b9150611efd83611805565b925082611f0d57611f0c611eb8565b5b828204905092915050565b7f46756e6472616973696e67206973207374696c6c206163746976652100000000600082015250565b6000611f4e601c836118f1565b9150611f5982611f18565b602082019050919050565b60006020820190508181036000830152611f7d81611f41565b9050919050565b7f566f74696e67206973207374696c6c2061637469766521000000000000000000600082015250565b6000611fba6017836118f1565b9150611fc582611f84565b602082019050919050565b60006020820190508181036000830152611fe981611fad565b9050919050565b7f4e6f20766f74657320746f206469737472696275746521000000000000000000600082015250565b60006120266017836118f1565b915061203182611ff0565b602082019050919050565b6000602082019050818103600083015261205581612019565b9050919050565b7f4e487b7100000000000000000000000000000000000000000000000000000000600052603260045260246000fd5b7f4e487b7100000000000000000000000000000000000000000000000000000000600052602260045260246000fd5b600060028204905060018216806120d257607f821691505b6020821081036120e5576120e461208b565b5b50919050565b600081905092915050565b6000612101826118e6565b61210b81856120eb565b935061211b818560208601611902565b80840191505092915050565b600061213382846120f6565b915081905092915050565b600081905092915050565b50565b600061215960008361213e565b915061216482612149565b600082019050919050565b600061217a8261214c565b9150819050919050565b7f5472616e73666572206661696c65642100000000000000000000000000000000600082015250565b60006121ba6010836118f1565b91506121c582612184565b602082019050919050565b600060208201905081810360008301526121e9816121ad565b9050919050565b6000606082019050818103600083015261220a818661193d565b9050612219602083018561180f565b6122266040830184611c7f565b949350505050565b7f4e6f206361757365732070726f76696465642100000000000000000000000000600082015250565b60006122646013836118f1565b915061226f8261222e565b602082019050919050565b6000602082019050818103600083015261229381612257565b9050919050565b7f43617573657320616e6420616464726573736573206c656e677468206d69736d60008201527f6174636821000000000000000000000000000000000000000000000000000000602082015250565b60006122f66025836118f1565b91506123018261229a565b604082019050919050565b60006020820190508181036000830152612325816122e9565b9050919050565b60008190508160005260206000209050919050565b6000815461234e816120ba565b61235881866120eb565b945060018216600081146123735760018114612388576123bb565b60ff19831686528115158202860193506123bb565b6123918561232c565b60005b838110156123b357815481890152600182019150602081019050612394565b838801955050505b50505092915050565b60006123d08284612341565b915081905092915050565b600080fd5b600080fd5b600080fd5b60008083356001602003843603038112612407576124066123db565b5b80840192508235915067ffffffffffffffff821115612429576124286123e0565b5b602083019250600182023603831315612445576124446123e5565b5b509250929050565b600082905092915050565b60006020601f8301049050919050565b600082821b905092915050565b6000600883026124a57fffffffffffffffffffffffffffffffffffffffffffffffffffffffffffffffff82612468565b6124af8683612468565b95508019841693508086168417925050509392505050565b6000819050919050565b60006124ec6124e76124e284611805565b6124c7565b611805565b9050919050565b6000819050919050565b612506836124d1565b61251a612512826124f3565b848454612475565b825550505050565b600090565b61252f612522565b61253a8184846124fd565b505050565b5b8181101561255e57612553600082612527565b600181019050612540565b5050565b601f8211156125a3576125748161232c565b61257d84612458565b8101602085101561258c578190505b6125a061259885612458565b83018261253f565b50505b505050565b600082821c905092915050565b60006125c6600019846008026125a8565b1980831691505092915050565b60006125df83836125b5565b9150826002028217905092915050565b6125f9838361244d565b67ffffffffffffffff81111561261257612611611ad9565b5b61261c82546120ba565b612627828285612562565b6000601f8311600181146126565760008415612644578287013590505b61264e85826125d3565b8655506126b6565b601f1984166126648661232c565b60005b8281101561268c57848901358255600182019150602085019450602081019050612667565b868310156126a957848901356126a5601f8916826125b5565b8355505b6001600288020188555050505b50505050505050565b60006126cb83856120eb565b93506126d8838584611b85565b82840190509392505050565b60006126f18284866126bf565b91508190509392505050565b600061270882611805565b915061271383611805565b925082820190508082111561272b5761272a611e47565b5b92915050565b60006060820190506127466000830186611c7f565b6127536020830185611c7f565b612760604083018461180f565b949350505050565b61277181611d02565b811461277c57600080fd5b50565b60008151905061278e81612768565b92915050565b6000602082840312156127aa576127a9611843565b5b60006127b88482850161277f565b91505092915050565b7f46756e6472616973696e6720686173206265656e2073746f707065642062792060008201527f746865206f776e65722100000000000000000000000000000000000000000000602082015250565b600061281d602a836118f1565b9150612828826127c1565b604082019050919050565b6000602082019050818103600083015261284c81612810565b9050919050565b7f46756e6472616973696e6720656e646564210000000000000000000000000000600082015250565b60006128896012836118f1565b915061289482612853565b602082019050919050565b600060208201905081810360008301526128b88161287c565b9050919050565b7f446f6e6174696f6e206d7573742062652067726561746572207468616e207a6560008201527f726f210000000000000000000000000000000000000000000000000000000000602082015250565b600061291b6023836118f1565b9150612926826128bf565b604082019050919050565b6000602082019050818103600083015261294a8161290e565b9050919050565b60006040820190506129666000830185611c7f565b612973602083018461180f565b9392505050565b7f566f74696e6720686173206265656e2073746f7070656420627920746865206f60008201527f776e657221000000000000000000000000000000000000000000000000000000602082015250565b60006129d66025836118f1565b91506129e18261297a565b604082019050919050565b60006020820190508181036000830152612a05816129c9565b9050919050565b600081519050612a1b8161184d565b92915050565b600060208284031215612a3757612a36611843565b5b6000612a4584828501612a0c565b91505092915050565b7f4e6f20746f6b656e20746f20766f746520776974682100000000000000000000600082015250565b6000612a846016836118f1565b9150612a8f82612a4e565b602082019050919050565b60006020820190508181036000830152612ab381612a77565b9050919050565b7f4361757365206e6f7420666f756e642100000000000000000000000000000000600082015250565b6000612af06010836118f1565b9150612afb82612aba565b602082019050919050565b60006020820190508181036000830152612b1f81612ae3565b9050919050565b6000612b3283856118f1565b9350612b3f838584611b85565b612b488361192c565b840190509392505050565b60006040820190508181036000830152612b6e818587612b26565b9050612b7d602083018461180f565b949350505050565b60008190508160005260206000209050919050565b60008154612ba7816120ba565b612bb1818661213e565b94506001821660008114612bcc5760018114612be157612c14565b60ff1983168652811515820286019350612c14565b612bea85612b85565b60005b83811015612c0c57815481890152600182019150602081019050612bed565b838801955050505b50505092915050565b6000612c298284612b9a565b91508190509291505056fea2646970667358221220595c69bd26d109ab69a0327605c58470ad356cc628e64d119082a9a346cd7c0364736f6c634300081c0033",
  "linkReferences": {},
  "deployedLinkReferences": {}
}