{
  "_format": "hh-sol-artifact-1",
  "contractName": "Fundraising",
  "sourceName": "contracts/Fundraising.sol",
  "abi": [
    {
      "inputs": [
        {
          "internalType": "address",
          "name": "_tokenAddress",
          "type": "address"
        },
        {
          "internalType": "uint256",
          "name": "_duration",
          "type": "uint256"
        }
      ],
      "stateMutability": "nonpayable",
      "type": "constructor"
    },
    {
      "inputs": [
        {
          "internalType": "address",
          "name": "owner",
          "type": "address"
        }
      ],
      "name": "OwnableInvalidOwner",
      "type": "error"
    },
    {
      "inputs": [
        {
          "internalType": "address",
          "name": "account",
          "type": "address"
        }
      ],
      "name": "OwnableUnauthorizedAccount",
      "type": "error"
    },
    {
      "anonymous": false,
      "inputs": [
        {
          "indexed": false,
          "internalType": "string",
          "name": "cause",
          "type": "string"
        },
        {
          "indexed": false,
          "internalType": "uint256",
          "name": "votes",
          "type": "uint256"
        }
      ],
      "name": "CauseVoted",
      "type": "event"
    },
    {
      "anonymous": false,
      "inputs": [
        {
          "indexed": true,
          "internalType": "address",
          "name": "donor",
          "type": "address"
        },
        {
          "indexed": false,
          "internalType": "uint256",
          "name": "amount",
          "type": "uint256"
        }
      ],
      "name": "DonationReceived",
      "type": "event"
    },
    {
      "anonymous": false,
      "inputs": [
        {
          "indexed": false,
          "internalType": "string",
          "name": "cause",
          "type": "string"
        },
        {
          "indexed": false,
          "internalType": "uint256",
          "name": "amount",
          "type": "uint256"
        },
        {
          "indexed": false,
          "internalType": "address",
          "name": "recipient",
          "type": "address"
        }
      ],
      "name": "FundsDistributed",
      "type": "event"
    },
    {
      "anonymous": false,
      "inputs": [
        {
          "indexed": true,
          "internalType": "address",
          "name": "previousOwner",
          "type": "address"
        },
        {
          "indexed": true,
          "internalType": "address",
          "name": "newOwner",
          "type": "address"
        }
      ],
      "name": "OwnershipTransferred",
      "type": "event"
    },
    {
      "anonymous": false,
      "inputs": [
        {
          "indexed": false,
          "internalType": "uint256",
          "name": "endTime",
          "type": "uint256"
        }
      ],
      "name": "VotingStarted",
      "type": "event"
    },
    {
      "inputs": [
        {
          "internalType": "uint256",
          "name": "donation",
          "type": "uint256"
        },
        {
          "internalType": "uint256",
          "name": "total",
          "type": "uint256"
        }
      ],
      "name": "calculatePercentage",
      "outputs": [
        {
          "internalType": "uint256",
          "name": "",
          "type": "uint256"
        }
      ],
      "stateMutability": "pure",
      "type": "function"
    },
    {
      "inputs": [
        {
          "internalType": "string",
          "name": "",
          "type": "string"
        }
      ],
      "name": "causeAddresses",
      "outputs": [
        {
          "internalType": "address",
          "name": "",
          "type": "address"
        }
      ],
      "stateMutability": "view",
      "type": "function"
    },
    {
      "inputs": [
        {
          "internalType": "uint256",
          "name": "",
          "type": "uint256"
        }
      ],
      "name": "causes",
      "outputs": [
        {
          "internalType": "string",
          "name": "",
          "type": "string"
        }
      ],
      "stateMutability": "view",
      "type": "function"
    },
    {
      "inputs": [],
      "name": "distributeFunds",
      "outputs": [],
      "stateMutability": "nonpayable",
      "type": "function"
    },
    {
      "inputs": [],
      "name": "donate",
      "outputs": [],
      "stateMutability": "payable",
      "type": "function"
    },
    {
      "inputs": [
        {
          "internalType": "address",
          "name": "",
          "type": "address"
        }
      ],
      "name": "donations",
      "outputs": [
        {
          "internalType": "uint256",
          "name": "",
          "type": "uint256"
        }
      ],
      "stateMutability": "view",
      "type": "function"
    },
    {
      "inputs": [
        {
          "internalType": "uint256",
          "name": "amount",
          "type": "uint256"
        }
      ],
      "name": "fundWithTokens",
      "outputs": [],
      "stateMutability": "nonpayable",
      "type": "function"
    },
    {
      "inputs": [],
      "name": "fundraisingEnd",
      "outputs": [
        {
          "internalType": "uint256",
          "name": "",
          "type": "uint256"
        }
      ],
      "stateMutability": "view",
      "type": "function"
    },
    {
      "inputs": [],
      "name": "owner",
      "outputs": [
        {
          "internalType": "address",
          "name": "",
          "type": "address"
        }
      ],
      "stateMutability": "view",
      "type": "function"
    },
    {
      "inputs": [],
      "name": "renounceOwnership",
      "outputs": [],
      "stateMutability": "nonpayable",
      "type": "function"
    },
    {
      "inputs": [
        {
          "internalType": "string[]",
          "name": "_causes",
          "type": "string[]"
        },
        {
          "internalType": "address[]",
          "name": "_addresses",
          "type": "address[]"
        }
      ],
      "name": "startVoting",
      "outputs": [],
      "stateMutability": "nonpayable",
      "type": "function"
    },
    {
      "inputs": [],
      "name": "tokenAddress",
      "outputs": [
        {
          "internalType": "address",
          "name": "",
          "type": "address"
        }
      ],
      "stateMutability": "view",
      "type": "function"
    },
    {
      "inputs": [],
      "name": "totalFunds",
      "outputs": [
        {
          "internalType": "uint256",
          "name": "",
          "type": "uint256"
        }
      ],
      "stateMutability": "view",
      "type": "function"
    },
    {
      "inputs": [
        {
          "internalType": "address",
          "name": "newOwner",
          "type": "address"
        }
      ],
      "name": "transferOwnership",
      "outputs": [],
      "stateMutability": "nonpayable",
      "type": "function"
    },
    {
      "inputs": [
        {
          "internalType": "string",
          "name": "cause",
          "type": "string"
        }
      ],
      "name": "vote",
      "outputs": [],
      "stateMutability": "nonpayable",
      "type": "function"
    },
    {
      "inputs": [
        {
          "internalType": "string",
          "name": "",
          "type": "string"
        }
      ],
      "name": "votes",
      "outputs": [
        {
          "internalType": "uint256",
          "name": "",
          "type": "uint256"
        }
      ],
      "stateMutability": "view",
      "type": "function"
    },
    {
      "inputs": [],
      "name": "votingEndTime",
      "outputs": [
        {
          "internalType": "uint256",
          "name": "",
          "type": "uint256"
        }
      ],
      "stateMutability": "view",
      "type": "function"
    }
  ],
  "bytecode": "0x608060405234801561001057600080fd5b50604051612bec380380612bec8339818101604052810190610032919061026c565b33600073ffffffffffffffffffffffffffffffffffffffff168173ffffffffffffffffffffffffffffffffffffffff16036100a55760006040517f1e4fbdf700000000000000000000000000000000000000000000000000000000815260040161009c91906102bb565b60405180910390fd5b6100b48161010f60201b60201c565b5081600160006101000a81548173ffffffffffffffffffffffffffffffffffffffff021916908373ffffffffffffffffffffffffffffffffffffffff16021790555080426101029190610305565b6003819055505050610339565b60008060009054906101000a900473ffffffffffffffffffffffffffffffffffffffff169050816000806101000a81548173ffffffffffffffffffffffffffffffffffffffff021916908373ffffffffffffffffffffffffffffffffffffffff1602179055508173ffffffffffffffffffffffffffffffffffffffff168173ffffffffffffffffffffffffffffffffffffffff167f8be0079c531659141344cd1fd0a4f28419497f9722a3daafe3b4186f6b6457e060405160405180910390a35050565b600080fd5b600073ffffffffffffffffffffffffffffffffffffffff82169050919050565b6000610203826101d8565b9050919050565b610213816101f8565b811461021e57600080fd5b50565b6000815190506102308161020a565b92915050565b6000819050919050565b61024981610236565b811461025457600080fd5b50565b60008151905061026681610240565b92915050565b60008060408385031215610283576102826101d3565b5b600061029185828601610221565b92505060206102a285828601610257565b9150509250929050565b6102b5816101f8565b82525050565b60006020820190506102d060008301846102ac565b92915050565b7f4e487b7100000000000000000000000000000000000000000000000000000000600052601160045260246000fd5b600061031082610236565b915061031b83610236565b9250828201905080821115610333576103326102d6565b5b92915050565b6128a4806103486000396000f3fe6080604052600436106100fe5760003560e01c80638da5cb5b11610095578063c7680ea511610064578063c7680ea514610323578063cc6cb19a1461034e578063ed88c68e1461038b578063f2fde38b14610395578063fc36e15b146103be576100fe565b80638da5cb5b14610265578063968ed600146102905780639d76ea58146102bb578063b99ef1fa146102e6576100fe565b80635789e46b116100d15780635789e46b146101bf5780635e5636f8146101e85780636a39d91c14610225578063715018a61461024e576100fe565b80631ea736e0146101035780632133e3b91461012e5780633a6a4d2e1461016b578063538a942a14610182575b600080fd5b34801561010f57600080fd5b506101186103e7565b60405161012591906115a6565b60405180910390f35b34801561013a57600080fd5b5061015560048036038101906101509190611601565b6103ed565b60405161016291906115a6565b60405180910390f35b34801561017757600080fd5b50610180610451565b005b34801561018e57600080fd5b506101a960048036038101906101a49190611641565b61077d565b6040516101b691906116fe565b60405180910390f35b3480156101cb57600080fd5b506101e660048036038101906101e191906117db565b610829565b005b3480156101f457600080fd5b5061020f600480360381019061020a919061198c565b610b05565b60405161021c9190611a16565b60405180910390f35b34801561023157600080fd5b5061024c60048036038101906102479190611641565b610b4e565b005b34801561025a57600080fd5b50610263610bfc565b005b34801561027157600080fd5b5061027a610c10565b6040516102879190611a16565b60405180910390f35b34801561029c57600080fd5b506102a5610c39565b6040516102b291906115a6565b60405180910390f35b3480156102c757600080fd5b506102d0610c3f565b6040516102dd9190611a16565b60405180910390f35b3480156102f257600080fd5b5061030d6004803603810190610308919061198c565b610c65565b60405161031a91906115a6565b60405180910390f35b34801561032f57600080fd5b50610338610c93565b60405161034591906115a6565b60405180910390f35b34801561035a57600080fd5b5061037560048036038101906103709190611a5d565b610c99565b60405161038291906115a6565b60405180910390f35b610393610cb1565b005b3480156103a157600080fd5b506103bc60048036038101906103b79190611a5d565b610e9e565b005b3480156103ca57600080fd5b506103e560048036038101906103e09190611ae0565b610f24565b005b60045481565b6000808211610431576040517f08c379a000000000000000000000000000000000000000000000000000000000815260040161042890611b79565b60405180910390fd5b8160648461043f9190611bc8565b6104499190611c39565b905092915050565b6104596112ac565b600354421161049d576040517f08c379a000000000000000000000000000000000000000000000000000000000815260040161049490611cb6565b60405180910390fd5b60045442116104e1576040517f08c379a00000000000000000000000000000000000000000000000000000000081526004016104d890611d22565b60405180910390fd5b60006104eb611333565b905060008111610530576040517f08c379a000000000000000000000000000000000000000000000000000000000815260040161052790611d8e565b60405180910390fd5b60005b6008805490508110156107715760006008828154811061055657610555611dae565b5b90600052602060002001805461056b90611e0c565b80601f016020809104026020016040519081016040528092919081815260200182805461059790611e0c565b80156105e45780601f106105b9576101008083540402835291602001916105e4565b820191906000526020600020905b8154815290600101906020018083116105c757829003601f168201915b5050505050905060006007826040516105fd9190611e79565b908152602001604051809103902060009054906101000a900473ffffffffffffffffffffffffffffffffffffffff16905060006006836040516106409190611e79565b90815260200160405180910390205490506000811115610761576000858260025461066b9190611bc8565b6106759190611c39565b905060008373ffffffffffffffffffffffffffffffffffffffff168260405161069d90611ec1565b60006040518083038185875af1925050503d80600081146106da576040519150601f19603f3d011682016040523d82523d6000602084013e6106df565b606091505b5050905080610723576040517f08c379a000000000000000000000000000000000000000000000000000000000815260040161071a90611f22565b60405180910390fd5b7f068f3ba3c9a8db73feba6700d2dc289338dc4e94f39664012103504ae16086c385838660405161075693929190611f42565b60405180910390a150505b5050508080600101915050610533565b50600060028190555050565b6008818154811061078d57600080fd5b9060005260206000200160009150905080546107a890611e0c565b80601f01602080910402602001604051908101604052809291908181526020018280546107d490611e0c565b80156108215780601f106107f657610100808354040283529160200191610821565b820191906000526020600020905b81548152906001019060200180831161080457829003601f168201915b505050505081565b6108316112ac565b6003544211610875576040517f08c379a000000000000000000000000000000000000000000000000000000000815260040161086c90611cb6565b60405180910390fd5b600084849050116108bb576040517f08c379a00000000000000000000000000000000000000000000000000000000081526004016108b290611fcc565b60405180910390fd5b818190508484905014610903576040517f08c379a00000000000000000000000000000000000000000000000000000000081526004016108fa9061205e565b60405180910390fd5b60005b60088054905081101561097e5760076008828154811061092957610928611dae565b5b906000526020600020016040516109409190612116565b908152602001604051809103902060006101000a81549073ffffffffffffffffffffffffffffffffffffffff02191690558080600101915050610906565b506008600061098d91906114eb565b60005b84849050811015610ab25760088585838181106109b0576109af611dae565b5b90506020028101906109c2919061213c565b909180600181540180825580915050600190039060005260206000200160009091929091929091929091925091826109fb929190612341565b50828282818110610a0f57610a0e611dae565b5b9050602002016020810190610a249190611a5d565b6007868684818110610a3957610a38611dae565b5b9050602002810190610a4b919061213c565b604051610a59929190612436565b908152602001604051809103902060006101000a81548173ffffffffffffffffffffffffffffffffffffffff021916908373ffffffffffffffffffffffffffffffffffffffff1602179055508080600101915050610990565b50603c42610ac0919061244f565b6004819055507fcf33babc496bb6dc2942b39cb7b75766bbbadf7da50d176ff8c513e991140239600454604051610af791906115a6565b60405180910390a150505050565b6007818051602081018201805184825260208301602085012081835280955050505050506000915054906101000a900473ffffffffffffffffffffffffffffffffffffffff1681565b610b566112ac565b600160009054906101000a900473ffffffffffffffffffffffffffffffffffffffff1673ffffffffffffffffffffffffffffffffffffffff166323b872dd3330846040518463ffffffff1660e01b8152600401610bb593929190612483565b6020604051808303816000875af1158015610bd4573d6000803e3d6000fd5b505050506040513d601f19601f82011682018060405250810190610bf891906124f2565b5050565b610c046112ac565b610c0e60006113a8565b565b60008060009054906101000a900473ffffffffffffffffffffffffffffffffffffffff16905090565b60025481565b600160009054906101000a900473ffffffffffffffffffffffffffffffffffffffff1681565b6006818051602081018201805184825260208301602085012081835280955050505050506000915090505481565b60035481565b60056020528060005260406000206000915090505481565b6003544210610cf5576040517f08c379a0000000000000000000000000000000000000000000000000000000008152600401610cec9061256b565b60405180910390fd5b60003411610d38576040517f08c379a0000000000000000000000000000000000000000000000000000000008152600401610d2f906125fd565b60405180910390fd5b34600560003373ffffffffffffffffffffffffffffffffffffffff1673ffffffffffffffffffffffffffffffffffffffff1681526020019081526020016000206000828254610d87919061244f565b925050819055503460026000828254610da0919061244f565b925050819055506000349050600160009054906101000a900473ffffffffffffffffffffffffffffffffffffffff1673ffffffffffffffffffffffffffffffffffffffff1663a9059cbb33836040518363ffffffff1660e01b8152600401610e0992919061261d565b6020604051808303816000875af1158015610e28573d6000803e3d6000fd5b505050506040513d601f19601f82011682018060405250810190610e4c91906124f2565b503373ffffffffffffffffffffffffffffffffffffffff167f264f630d9efa0d07053a31163641d9fcc0adafc9d9e76f1c37c2ce3a558d2c5234604051610e9391906115a6565b60405180910390a250565b610ea66112ac565b600073ffffffffffffffffffffffffffffffffffffffff168173ffffffffffffffffffffffffffffffffffffffff1603610f185760006040517f1e4fbdf7000000000000000000000000000000000000000000000000000000008152600401610f0f9190611a16565b60405180910390fd5b610f21816113a8565b50565b6003544211610f68576040517f08c379a0000000000000000000000000000000000000000000000000000000008152600401610f5f90611cb6565b60405180910390fd5b6000600160009054906101000a900473ffffffffffffffffffffffffffffffffffffffff1673ffffffffffffffffffffffffffffffffffffffff166370a08231336040518263ffffffff1660e01b8152600401610fc59190611a16565b602060405180830381865afa158015610fe2573d6000803e3d6000fd5b505050506040513d601f19601f82011682018060405250810190611006919061265b565b11611046576040517f08c379a000000000000000000000000000000000000000000000000000000000815260040161103d906126d4565b60405180910390fd5b61109382828080601f016020809104026020016040519081016040528093929190818152602001838380828437600081840152601f19601f8201169050808301925050505050505061146c565b6110d2576040517f08c379a00000000000000000000000000000000000000000000000000000000081526004016110c990612740565b60405180910390fd5b6000600160009054906101000a900473ffffffffffffffffffffffffffffffffffffffff1673ffffffffffffffffffffffffffffffffffffffff166370a08231336040518263ffffffff1660e01b815260040161112f9190611a16565b602060405180830381865afa15801561114c573d6000803e3d6000fd5b505050506040513d601f19601f82011682018060405250810190611170919061265b565b90508060068484604051611185929190612436565b908152602001604051809103902060008282546111a2919061244f565b92505081905550600160009054906101000a900473ffffffffffffffffffffffffffffffffffffffff1673ffffffffffffffffffffffffffffffffffffffff166323b872dd3330846040518463ffffffff1660e01b815260040161120893929190612483565b6020604051808303816000875af1158015611227573d6000803e3d6000fd5b505050506040513d601f19601f8201168201806040525081019061124b91906124f2565b507ffda139a8143971d27a9b511dd95c9d152e14ad0a5d109e884e021592675a7671838360068686604051611281929190612436565b90815260200160405180910390205460405161129f9392919061278d565b60405180910390a1505050565b6112b46114e3565b73ffffffffffffffffffffffffffffffffffffffff166112d2610c10565b73ffffffffffffffffffffffffffffffffffffffff1614611331576112f56114e3565b6040517f118cdaa70000000000000000000000000000000000000000000000000000000081526004016113289190611a16565b60405180910390fd5b565b6000806000905060005b6008805490508110156113a0576006600882815481106113605761135f611dae565b5b906000526020600020016040516113779190612116565b90815260200160405180910390205482611391919061244f565b9150808060010191505061133d565b508091505090565b60008060009054906101000a900473ffffffffffffffffffffffffffffffffffffffff169050816000806101000a81548173ffffffffffffffffffffffffffffffffffffffff021916908373ffffffffffffffffffffffffffffffffffffffff1602179055508173ffffffffffffffffffffffffffffffffffffffff168173ffffffffffffffffffffffffffffffffffffffff167f8be0079c531659141344cd1fd0a4f28419497f9722a3daafe3b4186f6b6457e060405160405180910390a35050565b600080600090505b6008805490508110156114d85782805190602001206008828154811061149d5761149c611dae565b5b906000526020600020016040516114b49190612857565b6040518091039020036114cb5760019150506114de565b8080600101915050611474565b50600090505b919050565b600033905090565b5080546000825590600052602060002090810190611509919061150c565b50565b5b8082111561152c57600081816115239190611530565b5060010161150d565b5090565b50805461153c90611e0c565b6000825580601f1061154e575061156d565b601f01602090049060005260206000209081019061156c9190611570565b5b50565b5b80821115611589576000816000905550600101611571565b5090565b6000819050919050565b6115a08161158d565b82525050565b60006020820190506115bb6000830184611597565b92915050565b6000604051905090565b600080fd5b600080fd5b6115de8161158d565b81146115e957600080fd5b50565b6000813590506115fb816115d5565b92915050565b60008060408385031215611618576116176115cb565b5b6000611626858286016115ec565b9250506020611637858286016115ec565b9150509250929050565b600060208284031215611657576116566115cb565b5b6000611665848285016115ec565b91505092915050565b600081519050919050565b600082825260208201905092915050565b60005b838110156116a857808201518184015260208101905061168d565b60008484015250505050565b6000601f19601f8301169050919050565b60006116d08261166e565b6116da8185611679565b93506116ea81856020860161168a565b6116f3816116b4565b840191505092915050565b6000602082019050818103600083015261171881846116c5565b905092915050565b600080fd5b600080fd5b600080fd5b60008083601f84011261174557611744611720565b5b8235905067ffffffffffffffff81111561176257611761611725565b5b60208301915083602082028301111561177e5761177d61172a565b5b9250929050565b60008083601f84011261179b5761179a611720565b5b8235905067ffffffffffffffff8111156117b8576117b7611725565b5b6020830191508360208202830111156117d4576117d361172a565b5b9250929050565b600080600080604085870312156117f5576117f46115cb565b5b600085013567ffffffffffffffff811115611813576118126115d0565b5b61181f8782880161172f565b9450945050602085013567ffffffffffffffff811115611842576118416115d0565b5b61184e87828801611785565b925092505092959194509250565b600080fd5b7f4e487b7100000000000000000000000000000000000000000000000000000000600052604160045260246000fd5b611899826116b4565b810181811067ffffffffffffffff821117156118b8576118b7611861565b5b80604052505050565b60006118cb6115c1565b90506118d78282611890565b919050565b600067ffffffffffffffff8211156118f7576118f6611861565b5b611900826116b4565b9050602081019050919050565b82818337600083830152505050565b600061192f61192a846118dc565b6118c1565b90508281526020810184848401111561194b5761194a61185c565b5b61195684828561190d565b509392505050565b600082601f83011261197357611972611720565b5b813561198384826020860161191c565b91505092915050565b6000602082840312156119a2576119a16115cb565b5b600082013567ffffffffffffffff8111156119c0576119bf6115d0565b5b6119cc8482850161195e565b91505092915050565b600073ffffffffffffffffffffffffffffffffffffffff82169050919050565b6000611a00826119d5565b9050919050565b611a10816119f5565b82525050565b6000602082019050611a2b6000830184611a07565b92915050565b611a3a816119f5565b8114611a4557600080fd5b50565b600081359050611a5781611a31565b92915050565b600060208284031215611a7357611a726115cb565b5b6000611a8184828501611a48565b91505092915050565b60008083601f840112611aa057611a9f611720565b5b8235905067ffffffffffffffff811115611abd57611abc611725565b5b602083019150836001820283011115611ad957611ad861172a565b5b9250929050565b60008060208385031215611af757611af66115cb565b5b600083013567ffffffffffffffff811115611b1557611b146115d0565b5b611b2185828601611a8a565b92509250509250929050565b7f546f74616c206d7573742062652067726561746572207468616e207a65726f21600082015250565b6000611b63602083611679565b9150611b6e82611b2d565b602082019050919050565b60006020820190508181036000830152611b9281611b56565b9050919050565b7f4e487b7100000000000000000000000000000000000000000000000000000000600052601160045260246000fd5b6000611bd38261158d565b9150611bde8361158d565b9250828202611bec8161158d565b91508282048414831517611c0357611c02611b99565b5b5092915050565b7f4e487b7100000000000000000000000000000000000000000000000000000000600052601260045260246000fd5b6000611c448261158d565b9150611c4f8361158d565b925082611c5f57611c5e611c0a565b5b828204905092915050565b7f46756e6472616973696e67206973207374696c6c206163746976652100000000600082015250565b6000611ca0601c83611679565b9150611cab82611c6a565b602082019050919050565b60006020820190508181036000830152611ccf81611c93565b9050919050565b7f566f74696e67206973207374696c6c2061637469766521000000000000000000600082015250565b6000611d0c601783611679565b9150611d1782611cd6565b602082019050919050565b60006020820190508181036000830152611d3b81611cff565b9050919050565b7f4e6f20766f74657320746f206469737472696275746521000000000000000000600082015250565b6000611d78601783611679565b9150611d8382611d42565b602082019050919050565b60006020820190508181036000830152611da781611d6b565b9050919050565b7f4e487b7100000000000000000000000000000000000000000000000000000000600052603260045260246000fd5b7f4e487b7100000000000000000000000000000000000000000000000000000000600052602260045260246000fd5b60006002820490506001821680611e2457607f821691505b602082108103611e3757611e36611ddd565b5b50919050565b600081905092915050565b6000611e538261166e565b611e5d8185611e3d565b9350611e6d81856020860161168a565b80840191505092915050565b6000611e858284611e48565b915081905092915050565b600081905092915050565b50565b6000611eab600083611e90565b9150611eb682611e9b565b600082019050919050565b6000611ecc82611e9e565b9150819050919050565b7f5472616e73666572206661696c65642100000000000000000000000000000000600082015250565b6000611f0c601083611679565b9150611f1782611ed6565b602082019050919050565b60006020820190508181036000830152611f3b81611eff565b9050919050565b60006060820190508181036000830152611f5c81866116c5565b9050611f6b6020830185611597565b611f786040830184611a07565b949350505050565b7f4e6f206361757365732070726f76696465642100000000000000000000000000600082015250565b6000611fb6601383611679565b9150611fc182611f80565b602082019050919050565b60006020820190508181036000830152611fe581611fa9565b9050919050565b7f43617573657320616e6420616464726573736573206c656e677468206d69736d60008201527f6174636821000000000000000000000000000000000000000000000000000000602082015250565b6000612048602583611679565b915061205382611fec565b604082019050919050565b600060208201905081810360008301526120778161203b565b9050919050565b60008190508160005260206000209050919050565b600081546120a081611e0c565b6120aa8186611e3d565b945060018216600081146120c557600181146120da5761210d565b60ff198316865281151582028601935061210d565b6120e38561207e565b60005b83811015612105578154818901526001820191506020810190506120e6565b838801955050505b50505092915050565b60006121228284612093565b915081905092915050565b600080fd5b600080fd5b600080fd5b600080833560016020038436030381126121595761215861212d565b5b80840192508235915067ffffffffffffffff82111561217b5761217a612132565b5b60208301925060018202360383131561219757612196612137565b5b509250929050565b600082905092915050565b60006020601f8301049050919050565b600082821b905092915050565b6000600883026121f77fffffffffffffffffffffffffffffffffffffffffffffffffffffffffffffffff826121ba565b61220186836121ba565b95508019841693508086168417925050509392505050565b6000819050919050565b600061223e6122396122348461158d565b612219565b61158d565b9050919050565b6000819050919050565b61225883612223565b61226c61226482612245565b8484546121c7565b825550505050565b600090565b612281612274565b61228c81848461224f565b505050565b5b818110156122b0576122a5600082612279565b600181019050612292565b5050565b601f8211156122f5576122c68161207e565b6122cf846121aa565b810160208510156122de578190505b6122f26122ea856121aa565b830182612291565b50505b505050565b600082821c905092915050565b6000612318600019846008026122fa565b1980831691505092915050565b60006123318383612307565b9150826002028217905092915050565b61234b838361219f565b67ffffffffffffffff81111561236457612363611861565b5b61236e8254611e0c565b6123798282856122b4565b6000601f8311600181146123a85760008415612396578287013590505b6123a08582612325565b865550612408565b601f1984166123b68661207e565b60005b828110156123de578489013582556001820191506020850194506020810190506123b9565b868310156123fb57848901356123f7601f891682612307565b8355505b6001600288020188555050505b50505050505050565b600061241d8385611e3d565b935061242a83858461190d565b82840190509392505050565b6000612443828486612411565b91508190509392505050565b600061245a8261158d565b91506124658361158d565b925082820190508082111561247d5761247c611b99565b5b92915050565b60006060820190506124986000830186611a07565b6124a56020830185611a07565b6124b26040830184611597565b949350505050565b60008115159050919050565b6124cf816124ba565b81146124da57600080fd5b50565b6000815190506124ec816124c6565b92915050565b600060208284031215612508576125076115cb565b5b6000612516848285016124dd565b91505092915050565b7f46756e6472616973696e6720656e646564210000000000000000000000000000600082015250565b6000612555601283611679565b91506125608261251f565b602082019050919050565b6000602082019050818103600083015261258481612548565b9050919050565b7f446f6e6174696f6e206d7573742062652067726561746572207468616e207a6560008201527f726f210000000000000000000000000000000000000000000000000000000000602082015250565b60006125e7602383611679565b91506125f28261258b565b604082019050919050565b60006020820190508181036000830152612616816125da565b9050919050565b60006040820190506126326000830185611a07565b61263f6020830184611597565b9392505050565b600081519050612655816115d5565b92915050565b600060208284031215612671576126706115cb565b5b600061267f84828501612646565b91505092915050565b7f4e6f20746f6b656e20746f20766f746520776974682100000000000000000000600082015250565b60006126be601683611679565b91506126c982612688565b602082019050919050565b600060208201905081810360008301526126ed816126b1565b9050919050565b7f4361757365206e6f7420666f756e642100000000000000000000000000000000600082015250565b600061272a601083611679565b9150612735826126f4565b602082019050919050565b600060208201905081810360008301526127598161271d565b9050919050565b600061276c8385611679565b935061277983858461190d565b612782836116b4565b840190509392505050565b600060408201905081810360008301526127a8818587612760565b90506127b76020830184611597565b949350505050565b60008190508160005260206000209050919050565b600081546127e181611e0c565b6127eb8186611e90565b94506001821660008114612806576001811461281b5761284e565b60ff198316865281151582028601935061284e565b612824856127bf565b60005b8381101561284657815481890152600182019150602081019050612827565b838801955050505b50505092915050565b600061286382846127d4565b91508190509291505056fea26469706673582212200bfc9c392c5f59952f677bb96d597487383679dc65a9824f635f603a61107d1164736f6c634300081c0033",
  "linkReferences": {},
  "deployedLinkReferences": {}
}